{
    "_format": "hh-sol-artifact-1",
    "contractName": "AaveLiquidator",
    "sourceName": "contracts/AaveLiquidator.sol",
    "abi": [
        {
            "inputs": [
                {
                    "internalType": "address",
                    "name": "_aavePool",
                    "type": "address"
                },
                {
                    "internalType": "address",
                    "name": "_netSwapRouter",
                    "type": "address"
                }
            ],
            "stateMutability": "nonpayable",
            "type": "constructor"
        },
        {
            "inputs": [
                {
                    "internalType": "address",
                    "name": "owner",
                    "type": "address"
                }
            ],
            "name": "OwnableInvalidOwner",
            "type": "error"
        },
        {
            "inputs": [
                {
                    "internalType": "address",
                    "name": "account",
                    "type": "address"
                }
            ],
            "name": "OwnableUnauthorizedAccount",
            "type": "error"
        },
        {
            "inputs": [
                {
                    "internalType": "address",
                    "name": "token",
                    "type": "address"
                }
            ],
            "name": "SafeERC20FailedOperation",
            "type": "error"
        },
        {
            "anonymous": false,
            "inputs": [
                {
                    "indexed": true,
                    "internalType": "address",
                    "name": "previousOwner",
                    "type": "address"
                },
                {
                    "indexed": true,
                    "internalType": "address",
                    "name": "newOwner",
                    "type": "address"
                }
            ],
            "name": "OwnershipTransferred",
            "type": "event"
        },
        {
            "inputs": [],
            "name": "ADDRESSES_PROVIDER",
            "outputs": [
                {
                    "internalType": "contract IPoolAddressesProvider",
                    "name": "",
                    "type": "address"
                }
            ],
            "stateMutability": "view",
            "type": "function"
        },
        {
            "inputs": [],
            "name": "POOL",
            "outputs": [
                {
                    "internalType": "contract IPool",
                    "name": "",
                    "type": "address"
                }
            ],
            "stateMutability": "view",
            "type": "function"
        },
        {
            "inputs": [],
            "name": "aavePool",
            "outputs": [
                {
                    "internalType": "contract IPool",
                    "name": "",
                    "type": "address"
                }
            ],
            "stateMutability": "view",
            "type": "function"
        },
        {
            "inputs": [
                {
                    "internalType": "address",
                    "name": "debtAsset",
                    "type": "address"
                },
                {
                    "internalType": "uint256",
                    "name": "debtAmount",
                    "type": "uint256"
                },
                {
                    "internalType": "uint256",
                    "name": "premium",
                    "type": "uint256"
                },
                {
                    "internalType": "address",
                    "name": "",
                    "type": "address"
                },
                {
                    "internalType": "bytes",
                    "name": "params",
                    "type": "bytes"
                }
            ],
            "name": "executeOperation",
            "outputs": [
                {
                    "internalType": "bool",
                    "name": "",
                    "type": "bool"
                }
            ],
            "stateMutability": "nonpayable",
            "type": "function"
        },
        {
            "inputs": [],
            "name": "netSwapRouter",
            "outputs": [
                {
                    "internalType": "contract INetSwapRouter",
                    "name": "",
                    "type": "address"
                }
            ],
            "stateMutability": "view",
            "type": "function"
        },
        {
            "inputs": [],
            "name": "owner",
            "outputs": [
                {
                    "internalType": "address",
                    "name": "",
                    "type": "address"
                }
            ],
            "stateMutability": "view",
            "type": "function"
        },
        {
            "inputs": [],
            "name": "renounceOwnership",
            "outputs": [],
            "stateMutability": "nonpayable",
            "type": "function"
        },
        {
            "inputs": [],
            "name": "slippageTolerance",
            "outputs": [
                {
                    "internalType": "uint256",
                    "name": "",
                    "type": "uint256"
                }
            ],
            "stateMutability": "view",
            "type": "function"
        },
        {
            "inputs": [
                {
                    "internalType": "address",
                    "name": "newOwner",
                    "type": "address"
                }
            ],
            "name": "transferOwnership",
            "outputs": [],
            "stateMutability": "nonpayable",
            "type": "function"
        },
        {
            "inputs": [
                {
                    "internalType": "address",
                    "name": "debtAsset",
                    "type": "address"
                },
                {
                    "internalType": "uint256",
                    "name": "debtAmount",
                    "type": "uint256"
                },
                {
                    "internalType": "address",
                    "name": "targetUser",
                    "type": "address"
                },
                {
                    "internalType": "address",
                    "name": "collateralAsset",
                    "type": "address"
                }
            ],
            "name": "triggerLiquidation",
            "outputs": [],
            "stateMutability": "nonpayable",
            "type": "function"
        }
    ],
    "bytecode": "0x60a060405234801561001057600080fd5b50604051611c1a380380611c1a83398181016040528101906100329190610261565b33600073ffffffffffffffffffffffffffffffffffffffff168173ffffffffffffffffffffffffffffffffffffffff16036100a55760006040517f1e4fbdf700000000000000000000000000000000000000000000000000000000815260040161009c91906102b0565b60405180910390fd5b6100b48161013a60201b60201c565b508173ffffffffffffffffffffffffffffffffffffffff1660808173ffffffffffffffffffffffffffffffffffffffff168152505080600160006101000a81548173ffffffffffffffffffffffffffffffffffffffff021916908373ffffffffffffffffffffffffffffffffffffffff16021790555061012c60028190555050506102cb565b60008060009054906101000a900473ffffffffffffffffffffffffffffffffffffffff169050816000806101000a81548173ffffffffffffffffffffffffffffffffffffffff021916908373ffffffffffffffffffffffffffffffffffffffff1602179055508173ffffffffffffffffffffffffffffffffffffffff168173ffffffffffffffffffffffffffffffffffffffff167f8be0079c531659141344cd1fd0a4f28419497f9722a3daafe3b4186f6b6457e060405160405180910390a35050565b600080fd5b600073ffffffffffffffffffffffffffffffffffffffff82169050919050565b600061022e82610203565b9050919050565b61023e81610223565b811461024957600080fd5b50565b60008151905061025b81610235565b92915050565b60008060408385031215610278576102776101fe565b5b60006102868582860161024c565b92505060206102978582860161024c565b9150509250929050565b6102aa81610223565b82525050565b60006020820190506102c560008301846102a1565b92915050565b608051611903610317600039600081816101cd01528181610263015281816103d40152818161059f015281816106500152818161069f01528181610791015261081401526119036000f3fe608060405234801561001057600080fd5b506004361061009e5760003560e01c80638da5cb5b116100665780638da5cb5b14610135578063a03e4bc314610153578063d03153aa14610171578063f2fde38b1461018f578063ffc5054c146101ab5761009e565b80630542975c146100a35780631b11d0ff146100c15780636ecbb027146100f1578063715018a61461010d5780637535d24614610117575b600080fd5b6100ab6101c9565b6040516100b89190610deb565b60405180910390f35b6100db60048036038101906100d69190610ef3565b61025f565b6040516100e89190610fa8565b60405180910390f35b61010b60048036038101906101069190610fc3565b61056f565b005b610115610638565b005b61011f61064c565b60405161012c919061104b565b60405180910390f35b61013d610674565b60405161014a9190611075565b60405180910390f35b61015b61069d565b604051610168919061104b565b60405180910390f35b6101796106c1565b604051610186919061109f565b60405180910390f35b6101a960048036038101906101a491906110ba565b6106c7565b005b6101b361074d565b6040516101c09190611108565b60405180910390f35b60007f000000000000000000000000000000000000000000000000000000000000000073ffffffffffffffffffffffffffffffffffffffff16630542975c6040518163ffffffff1660e01b8152600401602060405180830381865afa158015610236573d6000803e3d6000fd5b505050506040513d601f19601f8201168201806040525081019061025a9190611161565b905090565b60007f000000000000000000000000000000000000000000000000000000000000000073ffffffffffffffffffffffffffffffffffffffff163373ffffffffffffffffffffffffffffffffffffffff16146102ef576040517f08c379a00000000000000000000000000000000000000000000000000000000081526004016102e6906111eb565b60405180910390fd5b60008084848101906103019190611249565b9150915061031189898484610773565b60008173ffffffffffffffffffffffffffffffffffffffff166370a08231306040518263ffffffff1660e01b815260040161034c9190611075565b602060405180830381865afa158015610369573d6000803e3d6000fd5b505050506040513d601f19601f8201168201806040525081019061038d919061129e565b90506103a6828b838b8d6103a191906112fa565b6108ab565b6000888a6103b491906112fa565b90508a73ffffffffffffffffffffffffffffffffffffffff1663095ea7b37f0000000000000000000000000000000000000000000000000000000000000000836040518363ffffffff1660e01b815260040161041192919061132e565b6020604051808303816000875af1158015610430573d6000803e3d6000fd5b505050506040513d601f19601f820116820180604052508101906104549190611383565b5060008b73ffffffffffffffffffffffffffffffffffffffff166370a08231306040518263ffffffff1660e01b81526004016104909190611075565b602060405180830381865afa1580156104ad573d6000803e3d6000fd5b505050506040513d601f19601f820116820180604052508101906104d1919061129e565b905081811015610516576040517f08c379a000000000000000000000000000000000000000000000000000000000815260040161050d906113fc565b60405180910390fd5b8181111561055c5761055b610529610674565b8383610535919061141c565b8e73ffffffffffffffffffffffffffffffffffffffff16610af89092919063ffffffff16565b5b6001955050505050509695505050505050565b610577610b77565b6000828260405160200161058c929190611450565b60405160208183030381529060405290507f000000000000000000000000000000000000000000000000000000000000000073ffffffffffffffffffffffffffffffffffffffff166342b0b77c3087878560006040518663ffffffff1660e01b81526004016105ff959493929190611552565b600060405180830381600087803b15801561061957600080fd5b505af115801561062d573d6000803e3d6000fd5b505050505050505050565b610640610b77565b61064a6000610bfe565b565b60007f0000000000000000000000000000000000000000000000000000000000000000905090565b60008060009054906101000a900473ffffffffffffffffffffffffffffffffffffffff16905090565b7f000000000000000000000000000000000000000000000000000000000000000081565b60025481565b6106cf610b77565b600073ffffffffffffffffffffffffffffffffffffffff168173ffffffffffffffffffffffffffffffffffffffff16036107415760006040517f1e4fbdf70000000000000000000000000000000000000000000000000000000081526004016107389190611075565b60405180910390fd5b61074a81610bfe565b50565b600160009054906101000a900473ffffffffffffffffffffffffffffffffffffffff1681565b8373ffffffffffffffffffffffffffffffffffffffff1663095ea7b37f0000000000000000000000000000000000000000000000000000000000000000856040518363ffffffff1660e01b81526004016107ce92919061132e565b6020604051808303816000875af11580156107ed573d6000803e3d6000fd5b505050506040513d601f19601f820116820180604052508101906108119190611383565b507f000000000000000000000000000000000000000000000000000000000000000073ffffffffffffffffffffffffffffffffffffffff1662a718a98286858760006040518663ffffffff1660e01b81526004016108739594939291906115ac565b600060405180830381600087803b15801561088d57600080fd5b505af11580156108a1573d6000803e3d6000fd5b5050505050505050565b8373ffffffffffffffffffffffffffffffffffffffff1663095ea7b3600160009054906101000a900473ffffffffffffffffffffffffffffffffffffffff16846040518363ffffffff1660e01b815260040161090892919061132e565b6020604051808303816000875af1158015610927573d6000803e3d6000fd5b505050506040513d601f19601f8201168201806040525081019061094b9190611383565b506000600267ffffffffffffffff811115610969576109686115ff565b5b6040519080825280602002602001820160405280156109975781602001602082028036833780820191505090505b50905084816000815181106109af576109ae61162e565b5b602002602001019073ffffffffffffffffffffffffffffffffffffffff16908173ffffffffffffffffffffffffffffffffffffffff168152505083816001815181106109fe576109fd61162e565b5b602002602001019073ffffffffffffffffffffffffffffffffffffffff16908173ffffffffffffffffffffffffffffffffffffffff1681525050600160009054906101000a900473ffffffffffffffffffffffffffffffffffffffff1673ffffffffffffffffffffffffffffffffffffffff166338ed17398484843061012c42610a8891906112fa565b6040518663ffffffff1660e01b8152600401610aa895949392919061171b565b6000604051808303816000875af1158015610ac7573d6000803e3d6000fd5b505050506040513d6000823e3d601f19601f82011682018060405250810190610af09190611884565b505050505050565b610b72838473ffffffffffffffffffffffffffffffffffffffff1663a9059cbb8585604051602401610b2b92919061132e565b604051602081830303815290604052915060e01b6020820180517bffffffffffffffffffffffffffffffffffffffffffffffffffffffff8381831617835250505050610cc2565b505050565b610b7f610d64565b73ffffffffffffffffffffffffffffffffffffffff16610b9d610674565b73ffffffffffffffffffffffffffffffffffffffff1614610bfc57610bc0610d64565b6040517f118cdaa7000000000000000000000000000000000000000000000000000000008152600401610bf39190611075565b60405180910390fd5b565b60008060009054906101000a900473ffffffffffffffffffffffffffffffffffffffff169050816000806101000a81548173ffffffffffffffffffffffffffffffffffffffff021916908373ffffffffffffffffffffffffffffffffffffffff1602179055508173ffffffffffffffffffffffffffffffffffffffff168173ffffffffffffffffffffffffffffffffffffffff167f8be0079c531659141344cd1fd0a4f28419497f9722a3daafe3b4186f6b6457e060405160405180910390a35050565b600080602060008451602086016000885af180610ce5576040513d6000823e3d81fd5b3d925060005191505060008214610d00576001811415610d1c565b60008473ffffffffffffffffffffffffffffffffffffffff163b145b15610d5e57836040517f5274afe7000000000000000000000000000000000000000000000000000000008152600401610d559190611075565b60405180910390fd5b50505050565b600033905090565b600073ffffffffffffffffffffffffffffffffffffffff82169050919050565b6000819050919050565b6000610db1610dac610da784610d6c565b610d8c565b610d6c565b9050919050565b6000610dc382610d96565b9050919050565b6000610dd582610db8565b9050919050565b610de581610dca565b82525050565b6000602082019050610e006000830184610ddc565b92915050565b6000604051905090565b600080fd5b600080fd5b6000610e2582610d6c565b9050919050565b610e3581610e1a565b8114610e4057600080fd5b50565b600081359050610e5281610e2c565b92915050565b6000819050919050565b610e6b81610e58565b8114610e7657600080fd5b50565b600081359050610e8881610e62565b92915050565b600080fd5b600080fd5b600080fd5b60008083601f840112610eb357610eb2610e8e565b5b8235905067ffffffffffffffff811115610ed057610ecf610e93565b5b602083019150836001820283011115610eec57610eeb610e98565b5b9250929050565b60008060008060008060a08789031215610f1057610f0f610e10565b5b6000610f1e89828a01610e43565b9650506020610f2f89828a01610e79565b9550506040610f4089828a01610e79565b9450506060610f5189828a01610e43565b935050608087013567ffffffffffffffff811115610f7257610f71610e15565b5b610f7e89828a01610e9d565b92509250509295509295509295565b60008115159050919050565b610fa281610f8d565b82525050565b6000602082019050610fbd6000830184610f99565b92915050565b60008060008060808587031215610fdd57610fdc610e10565b5b6000610feb87828801610e43565b9450506020610ffc87828801610e79565b935050604061100d87828801610e43565b925050606061101e87828801610e43565b91505092959194509250565b600061103582610db8565b9050919050565b6110458161102a565b82525050565b6000602082019050611060600083018461103c565b92915050565b61106f81610e1a565b82525050565b600060208201905061108a6000830184611066565b92915050565b61109981610e58565b82525050565b60006020820190506110b46000830184611090565b92915050565b6000602082840312156110d0576110cf610e10565b5b60006110de84828501610e43565b91505092915050565b60006110f282610db8565b9050919050565b611102816110e7565b82525050565b600060208201905061111d60008301846110f9565b92915050565b600061112e82610e1a565b9050919050565b61113e81611123565b811461114957600080fd5b50565b60008151905061115b81611135565b92915050565b60006020828403121561117757611176610e10565b5b60006111858482850161114c565b91505092915050565b600082825260208201905092915050565b7f556e617574686f72697a65640000000000000000000000000000000000000000600082015250565b60006111d5600c8361118e565b91506111e08261119f565b602082019050919050565b60006020820190508181036000830152611204816111c8565b9050919050565b600061121682610d6c565b9050919050565b6112268161120b565b811461123157600080fd5b50565b6000813590506112438161121d565b92915050565b600080604083850312156112605761125f610e10565b5b600061126e85828601611234565b925050602061127f85828601611234565b9150509250929050565b60008151905061129881610e62565b92915050565b6000602082840312156112b4576112b3610e10565b5b60006112c284828501611289565b91505092915050565b7f4e487b7100000000000000000000000000000000000000000000000000000000600052601160045260246000fd5b600061130582610e58565b915061131083610e58565b9250828201905080821115611328576113276112cb565b5b92915050565b60006040820190506113436000830185611066565b6113506020830184611090565b9392505050565b61136081610f8d565b811461136b57600080fd5b50565b60008151905061137d81611357565b92915050565b60006020828403121561139957611398610e10565b5b60006113a78482850161136e565b91505092915050565b7f496e73756666696369656e742066756e647320666f722072657061796d656e74600082015250565b60006113e660208361118e565b91506113f1826113b0565b602082019050919050565b60006020820190508181036000830152611415816113d9565b9050919050565b600061142782610e58565b915061143283610e58565b925082820390508181111561144a576114496112cb565b5b92915050565b60006040820190506114656000830185611066565b6114726020830184611066565b9392505050565b600081519050919050565b600082825260208201905092915050565b60005b838110156114b3578082015181840152602081019050611498565b60008484015250505050565b6000601f19601f8301169050919050565b60006114db82611479565b6114e58185611484565b93506114f5818560208601611495565b6114fe816114bf565b840191505092915050565b6000819050919050565b600061ffff82169050919050565b600061153c61153761153284611509565b610d8c565b611513565b9050919050565b61154c81611521565b82525050565b600060a0820190506115676000830188611066565b6115746020830187611066565b6115816040830186611090565b818103606083015261159381856114d0565b90506115a26080830184611543565b9695505050505050565b600060a0820190506115c16000830188611066565b6115ce6020830187611066565b6115db6040830186611066565b6115e86060830185611090565b6115f56080830184610f99565b9695505050505050565b7f4e487b7100000000000000000000000000000000000000000000000000000000600052604160045260246000fd5b7f4e487b7100000000000000000000000000000000000000000000000000000000600052603260045260246000fd5b600081519050919050565b600082825260208201905092915050565b6000819050602082019050919050565b61169281610e1a565b82525050565b60006116a48383611689565b60208301905092915050565b6000602082019050919050565b60006116c88261165d565b6116d28185611668565b93506116dd83611679565b8060005b8381101561170e5781516116f58882611698565b9750611700836116b0565b9250506001810190506116e1565b5085935050505092915050565b600060a0820190506117306000830188611090565b61173d6020830187611090565b818103604083015261174f81866116bd565b905061175e6060830185611066565b61176b6080830184611090565b9695505050505050565b61177e826114bf565b810181811067ffffffffffffffff8211171561179d5761179c6115ff565b5b80604052505050565b60006117b0610e06565b90506117bc8282611775565b919050565b600067ffffffffffffffff8211156117dc576117db6115ff565b5b602082029050602081019050919050565b60006118006117fb846117c1565b6117a6565b9050808382526020820190506020840283018581111561182357611822610e98565b5b835b8181101561184c57806118388882611289565b845260208401935050602081019050611825565b5050509392505050565b600082601f83011261186b5761186a610e8e565b5b815161187b8482602086016117ed565b91505092915050565b60006020828403121561189a57611899610e10565b5b600082015167ffffffffffffffff8111156118b8576118b7610e15565b5b6118c484828501611856565b9150509291505056fea264697066735822122044fd3453a6af569822489d6e06073b41b2c2b6e0ae91973db155ba94d52fa2ca64736f6c634300081c0033",
    "linkReferences": {},
    "deployedLinkReferences": {}
}